:100000000C9438000C9466020C9466020C94660200
:100010000C9466020C9466020C9466020C946602C0
:100020000C9466020C9466020C9466020C946602B0
:100030000C9466020C9466020C9466020C946602A0
:100040000C9466020C9466020C9466020C94660290
:100050000C9466020C9466020C9466020C94660280
:100060000C9466020C9466020100010A0004DA0096
:1000700011241FBECFEFD8E0DEBFCDBFE8E6F0E031
:1000800040E017C0B591A59135912591059107FDE7
:100090000CC095918591EF01F92FE82F05900D92F5
:1000A000A217B307D9F7FE0104C01D92A217B30728
:1000B000E1F7EF36F40731F70E9412020C94480280
:0400C000F894FFCFE2
:1000C4000F931F93CF93DF930F92CDB7DEB70E94A8
:1000D4003C0285B1846085B985B18E7F85B92FEFE7
:1000E40080E792E0215080409040E1F700C000009A
:1000F40083E7898341E050E0BE016F5F7F4F80E575
:100104000E945F0289E3898341E050E0BE016F5F92
:100114007F4F80E00E945F028FE3898341E050E0DB
:10012400BE016F5F7F4F81E00E945F028AE0898396
:1001340041E050E0BE016F5F7F4F84E00E945F02A8
:10014400198241E050E0BE016F5F7F4F82E00E9460
:100154005F0216E0198341E050E0BE016F5F7F4FFC
:1001640085E00E945F02198341E050E0BE016F5FA9
:100174007F4F86E00E945F0200E7098341E050E080
:10018400BE016F5F7F4F87E00E945F0211E0198319
:1001940041E050E0BE016F5F7F4F81E10E945F024A
:1001A40083E0898341E050E0BE016F5F7F4F0E948E
:1001B4005F02098340E050E060E070E082EE0E945C
:1001C4005F0240E050E060E070E081EE0E945F0278
:1001D40045E050E065E071E08AE00E945F0245E09E
:1001E40050E060E071E080E10E945F02198341E029
:1001F40050E0BE016F5F7F4F82E00E945F020F906C
:0A020400DF91CF911F910F91089533
:10020E001F93CF93DF9300D0CDB7DEB7182F41E009
:10021E0050E0BE016E5F7F4F80E00E94630213309C
:10022E0071F128F4113059F01230E9F062C0153036
:10023E0009F447C0D0F1163009F447C05AC08A817C
:10024E0081FD57C08260898341E050E0BE016F5F3F
:10025E007F4F80E00E945F028FE99FE00197F1F7E8
:10026E0000C0000046C08A818D7F898341E050E046
:10027E00BE016F5F7F4F80E00E945F023AC08A81AD
:10028E008160898341E050E0BE016F5F7F4F80E067
:10029E000E945F0280E7898341E050E0BE016F5FFC
:1002AE007F4F87E00E945F0224C08A818E7F898300
:1002BE0041E050E0BE016F5F7F4F80E00E945F0221
:1002CE0018C085B18E7F85B914C08A818E7F8983CF
:1002DE0041E050E0BE016F5F7F4F80E00E945F0201
:1002EE0085B1816085B98BE291E00197F1F700C08D
:0E02FE0000000F900F90DF91CF911F91089597
:10030C00CF93DF9300D0CDB7DEB741E050E0BE0114
:10031C006F5F7F4F80E60E9463028981882301F121
:10032C0085B18E7F85B942E050E0BE016E5F7F4F94
:10033C0081E60E94BB0180E4898341E050E0BE016C
:10034C006F5F7F4F87E00E945F0240E050E060E00B
:10035C0070E082EE0E945F0285B1816085B98A816E
:0A036C000F900F90DF91CF910895DC
:10037600BF92CF92DF92EF92FF920F931F93CF938C
:10038600DF936B017A0195B19B7F95B90E94590263
:10039600B82EC0E0D0E00AC086010C0F1D1FF80180
:1003A60080810E945902F80180832196CE15DF05CF
:1003B60098F385B1846085B98B2DDF91CF911F911C
:0E03C6000F91FF90EF90DF90CF90BF900895C1
:1003D4008BB184608BB92FEF84E39CE02150804083
:1003E4009040E1F700C000008BB18B7F8BB92FEFF9
:1003F40084E39CE0215080409040E1F700C000007D
:100404008BB184608BB92FEF84E39CE02150804052
:100414009040E1F700C000008BB18B7F8BB9089549
:10042400F8940E9453028AB184608AB90E946200DF
:1004340081E00E9407010E942F022FEF80E792E0E3
:10044400215080409040E1F700C000000E948601E6
:0A045400853A99F70E94EA01F0CF03
:10045E0083E00E94070185B1816085B98BE291E04E
:0A046E000197F1F700C000000895A7
:1004780084B1856084B984B18D7F84B985B18E7F5C
:0804880085B986E085B90895ED
:10049000EC010E946B020E946A02CE010E946C0273
:0604A000CE010E9468027B
:0C04A60084B1886284B981E58CBD0895A2
:0C04B2008EBD0DB407FEFDCF8EB5089581
:0804BE0080620E94BB01089559
:0604C6000E94BB01089535
:0404CC000C9400008C
:0404D0000E94600026
:0204D400089589
:0204D600089587
:0204D800089585
:0504DA00E7E7E7E7E79A
:0504DF00E7E7E7E7E795
:00000001FF
