:100000000C943A000C9427030C9427030C942703B8
:100010000C9427030C9427030C94FA010C942703E7
:100020000C9427030C9427030C9427030C942703A8
:100030000C9427030C9427030C9427030C94270398
:100040000C9427030C9427030C9427030C94270388
:100050000C9427030C9427030C9427030C94270378
:100060000C9427030C942703010001038001030172
:100070000D00065C11241FBECFEFD8E0DEBFCDBF60
:10008000E8E6F0E040E017C0B591A59135912591E3
:10009000059107FD0CC095918591EF01F92FE82F8F
:1000A00005900D92A217B307D9F7FE0104C01D9267
:1000B000A217B307E1F7E437F40731F70E949D0276
:0800C0000C94F902F894FFCF43
:1000C8000F931F93CF93DF930F92CDB7DEB70E94A4
:1000D800ED0285B1846085B985B18E7F85B987EADF
:1000E80091E60197F1F700C0000083E7898341E0BA
:1000F80050E0BE016F5F7F4F80E50E94200389E3D7
:10010800898341E050E0BE016F5F7F4F80E00E942D
:1001180020038FE3898341E050E0BE016F5F7F4F8A
:1001280081E00E9420038AE0898341E050E0BE011B
:100138006F5F7F4F84E00E942003198241E050E006
:10014800BE016F5F7F4F82E00E94200316E0198393
:1001580041E050E0BE016F5F7F4F85E00E942003C1
:10016800198341E050E0BE016F5F7F4F86E00E9437
:10017800200300E7098341E050E0BE016F5F7F4F35
:1001880087E00E94200311E0198341E050E0BE019E
:100198006F5F7F4F81E10E94200383E0898341E004
:1001A80050E0BE016F5F7F4F0E942003098340E04B
:1001B80050E060E070E082EE0E94200340E050E0F2
:1001C80060E070E081EE0E94200345E050E068E0C6
:1001D80071E08AE00E94200345E050E063E071E0AE
:1001E80080E10E942003198341E050E0BE016F5F67
:1001F8007F4F82E00E9420030F90DF91CF911F91E3
:040208000F910895B5
:10020C001F93CF93DF9300D0CDB7DEB7182F41E00B
:10021C0050E0BE016E5F7F4F80E00E9424031330DC
:10022C0071F128F4113059F01230E9F05FC015303B
:10023C0009F447C0D0F1163009F447C057C08A8181
:10024C0081FD54C08260898341E050E0BE016F5F44
:10025C007F4F80E00E94200383EF91E00197F1F73C
:10026C0000C0000043C08A818D7F898341E050E04B
:10027C00BE016F5F7F4F80E00E94200337C08A81F0
:10028C008160898341E050E0BE016F5F7F4F80E069
:10029C000E94200380E7898341E050E0BE016F5F3C
:1002AC007F4F87E00E94200321C08A818E7F898343
:1002BC0041E050E0BE016F5F7F4F80E00E94200361
:1002CC0015C085B18E7F85B911C08A818E7F8983D7
:1002DC0041E050E0BE016F5F7F4F80E00E94200341
:1002EC0085B1816085B992E39A95F1F70F900F90E3
:0802FC00DF91CF911F910895DD
:100304001F93CF93DF930F92CDB7DEB7182F40E042
:1003140050E060E070E082EE0E94200340E050E094
:1003240060E070E081EE0E94200380E3898341E075
:1003340050E0BE016F5F7F4F87E00E94200341E0E1
:1003440050E0BE016F5F7F4F80E00E9424038981EB
:100354008064898341E050E0BE016F5F7F4F80E09D
:100364000E94200385B18B7F85B980EA0E941A031D
:10037400812F0E941A0385B1846085B984E00E94AC
:10038400060185B1816085B986E08A95F1F700C0E0
:1003940085B18E7F85B941E050E0BE016F5F7F4F2C
:1003A40087E00E94240308C041E050E0BE016F5F73
:1003B4007F4F87E00E94240389818073A9F341E081
:1003C40050E0BE016F5F7F4F80E00E94240389816B
:1003D4008F7B898341E050E0BE016F5F7F4F80E0F7
:1003E4000E94200381E00F90DF91CF911F91089527
:1003F4001F920F920FB60F9211242F933F934F9396
:100404005F936F937F938F939F93AF93BF93EF9378
:10041400FF9381E091E00E94C102E4E6F0E0808174
:100424008B7F80830E94ED020E94140381E091E09F
:100434000E943A02882349F081E00E94060185EA7D
:100444000E94820182E00E9406010E940D03FF9136
:10045400EF91BF91AF919F918F917F916F915F9138
:100464004F913F912F910F900FBE0F901F901895B1
:10047400FC019081692F6F73929596959695937070
:1004840049B150E0062E02C0559547950A94E2F70B
:1004940040FF06C0992361F0913069F080E015C0F7
:1004A400992361F0913061F0923069F080E00DC0E1
:1004B40091E080E00AC092E081E007C080E005C0DE
:1004C40090E080E002C090E080E040E4949F9001DE
:0804D4001124262B208308955A
:1004DC00BF92CF92DF92EF92FF920F931F93CF9325
:1004EC00DF936B017A0195B19B7F95B90E941A033A
:1004FC00B82EC0E0D0E00AC086010C0F1D1FF80119
:10050C0080810E941A03F80180832196CE15DF05A5
:10051C0098F385B1846085B98B2DDF91CF911F91B4
:0E052C000F91FF90EF90DF90CF90BF90089559
:10053A00F89482E00E94DC02809301010E94140375
:10054A000E9464000E94040383B7817F846083BF92
:10055A00F894E4E6F0E080818F6E808383B781604F
:10056A0083BF85B7806685BF8F7D85BF7894889560
:08057A0083B78E7F83BFECCF35
:10058200FC014AB190819F7321E030E0B90102C0C1
:10059200660F771F9A95E2F7962F909594239AB952
:1005A2009BB180818F7302C0220F331F8A95E2F7BD
:0605B200292B2BB908956E
:1005B8009AB121E030E0082E02C0220F331F0A94BE
:1005C800E2F7322F309593239AB99BB1292B2BB997
:0205D800089584
:1005DA0084B1856084B984B18D7F84B985B18E7FF9
:0805EA0085B986E085B908958A
:1005F200EC010E942C030E942B03CE010E942D03CA
:06060200CE010E94290355
:10060800A895E0E6F0E080818861808385E48083B6
:02061800089543
:0E061A0014B817B81AB815B818B81BB8089558
:0C06280084B1886284B981E58CBD08951E
:0C0634008EBD0DB407FEFDCF8EB50895FD
:0806400080620E946E02089521
:060648000E946E020895FD
:04064E000C94000008
:040652000E946200A0
:02065600089505
:02065800089503
:02065A00089501
:05065C00E7E7E7E7E716
:05066100E7E7E7E7E711
:00000001FF
