:100000000C943A000C9402040C9402040C94020424
:100010000C9402040C9402040C9464000C940204EA
:100020000C9402040C9402040C9402040C94020438
:100030000C9402040C9402040C9402040C94020428
:100040000C9402040C9402040C9402040C94020418
:100050000C9402040C9402040C9402040C94020408
:100060000C9402040C9402040100010580010501B6
:100070000F00081211241FBECFEFD8E0DEBFCDBFA6
:10008000E8E6F0E040E017C0B591A59135912591E3
:10009000059107FD0CC095918591EF01F92FE82F8F
:1000A00005900D92A217B307D9F7FE0104C01D9267
:1000B000A217B307E1F7E437F40731F70E943D03D5
:0800C0000C94C403F894FFCF77
:1000C8001F920F920FB60F9211240F931F932F9325
:1000D8003F934F935F936F937F938F939F93AF93C8
:1000E800BF93EF93FF93CF93DF930F92CDB7DEB714
:1000F80081E091E00E948C0382E091E00E948C03F1
:10010800E4E6F0E080818B7F80830E94B8030E9440
:10011800EF03198280910301811142C082E091E0CE
:100128000E94DA02882359F181E00E94F80186ECE6
:100138000E9474020E94CF0308EC10E006C0015030
:10014800110981E28A95F1F700000115110521F0E6
:100158000E94E903882399F30E94680389838981AF
:10016800863D49F481E08093030186E08093000195
:1001780083E08093040182E00E94F8017BC081E063
:1001880091E00E94DA02882309F474C081E00E9499
:10019800F80186EA0E94740282E00E94F8016AC0AF
:1001A80080910301813009F065C082E091E00E94EE
:1001B800DA02882321F181E00E94F80186EB0E948F
:1001C80074020E94CF0308EC10E006C00150110928
:1001D80081E28A95F1F700000115110521F00E94CE
:1001E800E903882399F30E94680389838981863DFE
:1001F80011F41092030182E00E94F8013BC0809143
:1002080000018130A1F50E94F80186EE0E94740277
:100218000E94CF0308EC10E006C00150110981E2EA
:100228008A95F1F700000115110521F00E94E903F4
:10023800882399F30E946803898382E00E94F80169
:100248008981863D39F483E08093040186E08093B8
:10025800000110C08091040181508093040191E055
:1002680090930001811106C01092030103C08150D0
:10027800809300010E94E2030F90DF91CF91FF91DC
:10028800EF91BF91AF919F918F917F916F915F9106
:100298004F913F912F911F910F910F900FBE0F908B
:0402A8001F901895F6
:1002AC000F931F93CF93DF930F92CDB7DEB70E94BE
:1002BC00B80385B1846085B985B18E7F85B987EA2D
:1002CC0091E60197F1F700C0000083E7898341E0D4
:1002DC0050E0BE016F5F7F4F80E50E94FB0389E316
:1002EC00898341E050E0BE016F5F7F4F80E00E9448
:1002FC00FB038FE3898341E050E0BE016F5F7F4FCA
:10030C0081E00E94FB038AE0898341E050E0BE015A
:10031C006F5F7F4F84E00E94FB03198241E050E045
:10032C00BE016F5F7F4F82E00E94FB0386E08983F2
:10033C0041E050E0BE016F5F7F4F85E00E94FB0300
:10034C00198241E050E0BE016F5F7F4F86E00E9452
:10035C00FB0300E7098341E050E0BE016F5F7F4F74
:10036C0087E00E94FB0311E0198341E050E0BE01DD
:10037C006F5F7F4F81E10E94FB0383E0898341E043
:10038C0050E0BE016F5F7F4F0E94FB03098340E08A
:10039C0050E060E070E082EE0E94FB0340E050E031
:1003AC0060E070E081EE0E94FB0345E050E06AE003
:1003BC0071E08AE00E94FB0345E050E065E071E0EB
:1003CC0080E10E94FB03198341E050E0BE016F5FA6
:1003DC007F4F82E00E94FB030F90DF91CF911F9122
:0403EC000F910895D0
:1003F0001F93CF93DF9300D0CDB7DEB7182F41E026
:1004000050E0BE016E5F7F4F80E00E94FF0313301B
:1004100071F128F4113059F01230E9F05FC0153055
:1004200009F447C0D0F1163009F447C057C08A819B
:1004300081FD54C08260898341E050E0BE016F5F5E
:100440007F4F80E00E94FB0383EF91E00197F1F77B
:1004500000C0000043C08A818D7F898341E050E065
:10046000BE016F5F7F4F80E00E94FB0337C08A812F
:100470008160898341E050E0BE016F5F7F4F80E083
:100480000E94FB0380E7898341E050E0BE016F5F7B
:100490007F4F87E00E94FB0321C08A818E7F898382
:1004A00041E050E0BE016F5F7F4F80E00E94FB03A0
:1004B00015C085B18E7F85B911C08A818E7F8983F1
:1004C00041E050E0BE016F5F7F4F80E00E94FB0380
:1004D00085B1816085B992E39A95F1F70F900F90FD
:0804E000DF91CF911F910895F7
:1004E8000F931F93CF93DF930F92CDB7DEB7182FDB
:1004F80085B18E7F85B940E050E060E070E082EE23
:100508000E94FB0340E050E060E070E081EE0E9452
:10051800FB0380E3898341E050E0BE016F5F7F4FBA
:1005280087E00E94FB0385B18B7F85B980EA0E9432
:10053800F503812F0E94F50385B1846085B984E0B5
:100548000E94F80185B1816085B986E08A95F1F746
:1005580000C085B18E7F85B910E000E014C041E08D
:1005680050E0BE016F5F7F4F87E00E94FF038981E3
:1005780085FD05C084FF06C011E000E004C011E05D
:1005880001E001C000E0112351F380E3898341E0D9
:1005980050E0BE016F5F7F4F87E00E94FB03802F12
:0C05A8000F90DF91CF911F910F910895EB
:1005B400FC019081692F6F7392959695969593702F
:1005C40049B150E0062E02C0559547950A94E2F7CA
:1005D40040FF06C0992361F0913069F080E015C0B6
:1005E400992361F0913061F0923069F080E00DC0A0
:1005F40091E080E00AC092E081E007C080E005C09D
:1006040090E080E002C090E080E040E4949F90019C
:080614001124262B2083089518
:10061C00BF92CF92DF92EF92FF920F931F93CF93E3
:10062C00DF936B017A0195B19B7F95B90E94F5031D
:10063C00B82EC0E0D0E00AC086010C0F1D1FF801D7
:10064C0080810E94F503F80180832196CE15DF0589
:10065C0098F385B1846085B98B2DDF91CF911F9173
:0E066C000F91FF90EF90DF90CF90BF90089518
:10067A00F8941092030182E00E94A703809301017B
:10068A0083E00E94A703809302010E94EF030E9465
:10069A0056010E94D90383B7817F846083BFF8948F
:1006AA00E4E6F0E080818F6E808383B7816083BF48
:1006BA0085B7806685BF8F7D85BF7894889583B717
:0606CA008E7F83BFECCF20
:1006D000CF93DF9300D0CDB7DEB71A8285B18E7F7E
:1006E00085B941E050E0BE016E5F7F4F81E60E9418
:1006F0000E0380E4898341E050E0BE016F5F7F4FCD
:1007000087E00E94FB0385B1816085B98A810F90E3
:080710000F90DF91CF910895D5
:10071800FC014AB190819F7321E030E0B90102C029
:10072800660F771F9A95E2F7962F909594239AB9BA
:100738009BB180818F7302C0220F331F8A95E2F725
:06074800292B2BB90895D6
:10074E009AB121E030E0082E02C0220F331F0A9426
:10075E00E2F7322F309593239AB99BB1292B2BB9FF
:02076E000895EC
:1007700084B1856084B984B18D7F84B985B18E7F61
:0807800085B986E085B90895F2
:10078800EC010E9407040E940604CE010E9408049E
:06079800CE010E940404E2
:10079E0083E00E94F80185B1816085B982E38A9574
:0407AE00F1F70895C2
:1007B200A895E0E6F0E080818861808385E480830B
:0207C200089598
:0E07C40014B817B81AB815B818B81BB80895AD
:0C07D200199902C081E0089580E00895AC
:0C07DE0084B1886284B981E58CBD089567
:0C07EA008EBD0DB407FEFDCF8EB5089546
:0807F60080620E940E030895C9
:0607FE000E940E030895A5
:040804000C94000050
:040808000E946200E8
:02080C0008954D
:02080E0008954B
:02081000089549
:05081200E7E7E7E7E75E
:05081700E7E7E7E7E759
:00000001FF
