:100000000C943A000C945D040C945D040C945D0413
:100010000C945D040C945D040C9464000C945D04D9
:100020000C945D040C945D040C945D040C945D04CC
:100030000C945D040C945D040C945D040C945D04BC
:100040000C945D040C945D040C945D040C945D04AC
:100050000C945D040C945D040C945D040C945D049C
:100060000C945D040C945D040100010880010801FA
:10007000120008C811241FBECFEFD8E0DEBFCDBFED
:10008000E8E6F0E040E017C0B591A59135912591E3
:10009000059107FD0CC095918591EF01F92FE82F8F
:1000A00005900D92A217B307D9F7FE0104C01D9267
:1000B000A217B307E1F7E437F40731F70E94110301
:0800C0000C941804F894FFCF22
:1000C8001F920F920FB60F9211240F931F932F9325
:1000D8003F934F935F936F937F938F939F93AF93C8
:1000E800BF93EF93FF93CF93DF930F92CDB7DEB714
:1000F80081E091E00E94CF0382E091E00E94CF036B
:10010800E4E6F0E080818B7F80830E940C040E94EB
:10011800450419828091050181114DC082E091E06A
:100128000E9448038823B1F181E00E942F02809148
:1001380006010E94AB020E94230408EC10E00CC0E8
:10014800015011090E943F04882311F000E010E0DB
:1001580081E28A95F1F700000230110588F7012B3A
:10016800A9F40E94AB03898389818F3F79F481E0E8
:100178008093050163E071E086E091E00E94FB0353
:1001880086E08093000183E08093070182E00E946B
:100198002F02A7C081E091E00E944803882309F458
:1001A800A0C081E00E942F028EEF0E94AB0282E085
:1001B8000E942F0296C080910501813009F091C0FC
:1001C80082E091E00E944803882379F181E00E944F
:1001D8002F02809106010E94AB020E94230408ECC2
:1001E80010E00CC0015011090E943F04882311F04F
:1001F80000E010E081E28A95F1F700000230110575
:1002080088F7012B71F40E94AB03898389818F3FA2
:1002180041F41092050163E071E086E091E00E94EC
:10022800FB0382E00E942F025CC0809100018130B4
:1002380009F054C00E942F028FEF0E94AB020E9467
:10024800230408EC10E00CC0015011090E943F047F
:10025800882311F000E010E081E28A95F1F70000B0
:100268000230110588F7012B19F50E94AB03898329
:1002780082E00E942F0289818F3F39F483E08093C6
:10028800070186E0809300012CC08091070181500E
:100298008093070191E090930001811122C0109290
:1002A800050163E071E086E091E00E94FB0319C05C
:1002B80082E00E942F0280910701815080930701FC
:1002C80091E09093000181110CC01092050163E048
:1002D80071E086E091E00E94FB0303C081508093A7
:1002E80000010E9451040F90DF91CF91FF91EF918F
:1002F800BF91AF919F918F917F916F915F914F9136
:100308003F912F911F910F910F900FBE0F901F904B
:02031800189536
:10031A000F931F93CF93DF930F92CDB7DEB70E944F
:10032A000C0485B1846085B985B18E7F85B987EA69
:10033A0091E60197F1F700C0000083E7898341E065
:10034A0050E0BE016F5F7F4F80E50E94560489E34B
:10035A00898341E050E0BE016F5F7F4F80E00E94D9
:10036A0056048FE3898341E050E0BE016F5F7F4FFF
:10037A0081E00E9456048AE0898341E050E0BE0190
:10038A006F5F7F4F84E00E945604198241E050E07B
:10039A00BE016F5F7F4F82E00E94560416E0198308
:1003AA0041E050E0BE016F5F7F4F85E00E94560436
:1003BA00198341E050E0BE016F5F7F4F86E00E94E3
:1003CA00560400E7098341E050E0BE016F5F7F4FAA
:1003DA0087E00E94560411E0198341E050E0BE0113
:1003EA006F5F7F4F81E10E94560483E0898341E079
:1003FA0050E0BE016F5F7F4F0E945604098340E0C0
:10040A0050E060E070E082EE0E94560440E050E066
:10041A0060E070E081EE0E94560445E050E06DE035
:10042A0071E08AE00E94560445E050E068E071E01D
:10043A0080E10E945604198341E050E0BE016F5FDB
:10044A007F4F82E00E9456040F90DF91CF911F9157
:04045A000F91089561
:10045E001F93CF93DF9300D0CDB7DEB7182F41E0B7
:10046E0050E0BE016E5F7F4F80E00E945A04133051
:10047E0071F128F4113059F01230E9F05FC01530E7
:10048E0009F447C0D0F1163009F447C057C08A812D
:10049E0081FD54C08260898341E050E0BE016F5FF0
:1004AE007F4F80E00E94560483EF91E00197F1F7B1
:1004BE0000C0000043C08A818D7F898341E050E0F7
:1004CE00BE016F5F7F4F80E00E94560437C08A8165
:1004DE008160898341E050E0BE016F5F7F4F80E015
:1004EE000E94560480E7898341E050E0BE016F5FB1
:1004FE007F4F87E00E94560421C08A818E7F8983B8
:10050E0041E050E0BE016F5F7F4F80E00E945604D5
:10051E0015C085B18E7F85B911C08A818E7F898382
:10052E0041E050E0BE016F5F7F4F80E00E945604B5
:10053E0085B1816085B992E39A95F1F70F900F908E
:08054E00DF91CF911F91089588
:100556000F931F93CF93DF930F92CDB7DEB7182F6C
:1005660085B18E7F85B940E050E060E070E082EEB4
:100576000E94560440E050E060E070E081EE0E9488
:10058600560480E3898341E050E0BE016F5F7F4FF0
:1005960087E00E94560485B18B7F85B980EA0E9468
:1005A6004B04812F0E944B0485B1846085B984E099
:1005B6000E942F0285B1816085B986E08A95F1F7A0
:1005C60000C085B18E7F85B910E000E014C041E01F
:1005D60050E0BE016F5F7F4F87E00E945A04898119
:1005E60085FD05C084FF06C011E000E004C011E0EF
:1005F60001E001C000E0112351F380E3898341E06B
:1006060050E0BE016F5F7F4F87E00E945604802F47
:0C0616000F90DF91CF911F910F9108957C
:10062200F8941092050182E00E94EA03809301018E
:1006320083E00E94EA03809302010E9445040E9423
:100642008D0110920601109204011092030163E0E1
:1006520071E086E091E00E94FB030E942D0483B7C3
:10066200817F846083BFF894E4E6F0E080818F6E3E
:10067200808383B7816083BF85B7806685BF8F7DA6
:0E06820085BF7894889583B78E7F83BFECCFB9
:10069000FC019081692F6F73929596959695937052
:1006A00049B150E0062E02C0559547950A94E2F7ED
:1006B00040FF06C0992361F0913069F080E015C0D9
:1006C000992361F0913061F0923069F080E00DC0C3
:1006D00091E080E00AC092E081E007C080E005C0C0
:1006E00090E080E002C090E080E040E4949F9001C0
:0806F0001124262B208308953C
:1006F800BF92CF92DF92EF92FF920F931F93CF9307
:10070800DF936B017A0195B19B7F95B90E944B04E9
:10071800B82EC0E0D0E00AC086010C0F1D1FF801FA
:1007280080810E944B04F80180832196CE15DF0555
:1007380098F385B1846085B98B2DDF91CF911F9196
:0E0748000F91FF90EF90DF90CF90BF9008953B
:10075600CF93DF9300D0CDB7DEB71A8285B18E7FF7
:1007660085B941E050E0BE016E5F7F4F81E60E9491
:100776007C0380E4898341E050E0BE016F5F7F4FD8
:1007860087E00E94560485B1816085B98A810F9001
:080796000F90DF91CF9108954F
:10079E00FC014AB190819F7321E030E0B90102C0A3
:1007AE00660F771F9A95E2F7962F909594239AB934
:1007BE009BB180818F7302C0220F331F8A95E2F79F
:0607CE00292B2BB9089550
:1007D4009AB121E030E0082E02C0220F331F0A94A0
:1007E400E2F7322F309593239AB99BB1292B2BB979
:0207F400089566
:1007F600CF93DF93EC01FB01808191810196918378
:100806008083BC0180E80E9436048883DF91CF9103
:02081600089543
:1008180084B1856084B984B18D7F84B985B18E7FB8
:0808280085B986E085B9089549
:10083000EC010E9462040E946104CE010E946304E4
:06084000CE010E945F04DE
:1008460083E00E942F0285B1816085B982E38A9593
:04085600F1F7089519
:10085A00A895E0E6F0E080818861808385E4808362
:02086A000895EF
:10086C00CB01F999FECF92BD81BDF89A992780B53D
:02087C000895DD
:0C087E00199902C081E0089580E00895FF
:0C088A0084B1886284B981E58CBD0895BA
:0C0896008EBD0DB407FEFDCF8EB5089599
:0A08A20017B81AB818B81BB808956B
:0808AC0080620E947C030895A4
:0608B4000E947C03089580
:0408BA000C9400009A
:0408BE000E94620032
:0208C200089597
:0208C400089595
:0208C600089593
:0508C800E7E7E7E7E7A8
:0508CD00E7E7E7E7E7A3
:00000001FF
