:100000000C9438000C9492030C9492030C94920379
:100010000C9492030C9492030C9492030C9492030C
:100020000C9492030C9492030C9492030C949203FC
:100030000C9492030C9492030C9492030C949203EC
:100040000C9492030C9492030C9492030C949203DC
:100050000C9492030C9492030C9492030C949203CC
:100060000C9492030C9492030100010A00073200E1
:1000700011241FBECFEFD8E0DEBFCDBFE8E6F0E031
:1000800040E017C0B591A59135912591059107FDE7
:100090000CC095918591EF01F92FE82F05900D92F5
:1000A000A217B307D9F7FE0104C01D92A217B30728
:1000B000E1F7EF36F40731F70E946A020C9461030E
:0400C000F894FFCFE2
:1000C4000F931F93CF93DF930F92CDB7DEB70E94A8
:1000D4003F0385B1846085B985B18E7F85B92FEFE3
:1000E40080E792E0215080409040E1F700C000009A
:1000F40083E7898341E050E0BE016F5F7F4F80E575
:100104000E948B0389E3898341E050E0BE016F5F65
:100114007F4F80E00E948B038FE3898341E050E0AE
:10012400BE016F5F7F4F81E00E948B038AE0898369
:1001340041E050E0BE016F5F7F4F84E00E948B037B
:10014400198241E050E0BE016F5F7F4F82E00E9460
:100154008B0316E0198341E050E0BE016F5F7F4FCF
:1001640085E00E948B03198341E050E0BE016F5F7C
:100174007F4F86E00E948B0300E7098341E050E053
:10018400BE016F5F7F4F87E00E948B0311E01983EC
:1001940041E050E0BE016F5F7F4F81E10E948B031D
:1001A40083E0898341E050E0BE016F5F7F4F0E948E
:1001B4008B03098340E050E060E070E082EE0E942F
:1001C4008B0340E050E060E070E081EE0E948B031E
:1001D40045E050E065E071E08AE00E948B0345E071
:1001E40050E060E071E080E10E948B03198341E0FC
:1001F40050E0BE016F5F7F4F82E00E948B030F903F
:0A020400DF91CF911F910F91089533
:10020E001F93CF93DF9300D0CDB7DEB7182F41E009
:10021E0050E0BE016E5F7F4F80E00E948F0313306F
:10022E0071F128F4113059F01230E9F062C0153036
:10023E0009F447C0D0F1163009F447C05AC08A817C
:10024E0081FD57C08260898341E050E0BE016F5F3F
:10025E007F4F80E00E948B038FE99FE00197F1F7BB
:10026E0000C0000046C08A818D7F898341E050E046
:10027E00BE016F5F7F4F80E00E948B033AC08A8180
:10028E008160898341E050E0BE016F5F7F4F80E067
:10029E000E948B0380E7898341E050E0BE016F5FCF
:1002AE007F4F87E00E948B0324C08A818E7F8983D3
:1002BE0041E050E0BE016F5F7F4F80E00E948B03F4
:1002CE0018C085B18E7F85B914C08A818E7F8983CF
:1002DE0041E050E0BE016F5F7F4F80E00E948B03D4
:1002EE0085B1816085B98BE291E00197F1F700C08D
:0E02FE0000000F900F90DF91CF911F91089597
:10030C000F931F93CF93DF930F92CDB7DEB7182FB8
:10031C0085B18E7F85B940E050E060E070E082EE00
:10032C000E948B0340E050E060E070E081EE0E94A0
:10033C008B0380E3898341E050E0BE016F5F7F4F08
:10034C0087E00E948B0385B18B7F85B980EA0E9480
:10035C008503812F0E94850385B1846085B984E073
:10036C000E94070185B1816085B985E38A95F1F713
:10037C00000085B18E7F85B910E000E014C041E02B
:10038C0050E0BE016F5F7F4F87E00E948F03898131
:10039C0085FD05C084FF06C011E000E004C011E03B
:1003AC0001E001C000E0112351F380E3898341E0B7
:1003BC0050E0BE016F5F7F4F87E00E948B03802F60
:0C03CC000F90DF91CF911F910F910895C9
:1003D8000F931F93CF93DF938C01C0E0DDE70E945A
:1003E8007903882371F10E94CB02863ED1F48FE60F
:1003F80097E10197F1F700C0000086ED0E948601A1
:100408000E94260383E00E944B03EFE1FEE431974C
:10041800F1F700C0000083E00E943303C0E0DDE78D
:1004280011C0863B79F48FE697E10197F1F700C098
:10043800000086ED0E9486010E942603F8011082C2
:100448000DC02197209719F4F801108207C08BE29C
:1004580091E00197F1F700C00000C1CFDF91CF9183
:060468001F910F910895A1
:10046E004BB121E030E0B90102C0660F771F8A95CB
:10047E00E2F7CB01462B4BB97FEF24E33CE0715002
:10048E0020403040E1F700C000002BB1982F90952E
:10049E0029232BB94FEF64E37CE04150604070405C
:1004AE00E1F700C000002BB1822B8BB98FEF24E354
:1004BE003CE0815020403040E1F700C000008BB19D
:0604CE0098239BB908957C
:1004D400CF93DF930F92CDB7DEB71982F8940E94C1
:1004E4007F030E946C0382E00E94560383E00E9413
:1004F40056030E94620081E00E9407010E942603C5
:100504008981811108C083E00E944B03CE010196CA
:100514000E94EE02F5CF813041F483E00E94330360
:10052400CE0101960E94EC01EBCFCE0101960E9410
:040534000F03E6CFFC
:10053800BF92CF92DF92EF92FF920F931F93CF93C8
:10054800DF936B017A0195B19B7F95B90E94850372
:10055800B82EC0E0D0E00AC086010C0F1D1FF801BC
:1005680080810E948503F80180832196CE15DF05DE
:1005780098F385B1846085B98B2DDF91CF911F9158
:0E0588000F91FF90EF90DF90CF90BF900895FD
:10059600CF93DF9300D0CDB7DEB785B18E7F85B917
:1005A60041E050E0BE016E5F7F4F81E60E949C02F3
:1005B60080E4898341E050E0BE016F5F7F4F87E0B2
:1005C6000E948B0385B1816085B98A810F900F9057
:0605D600DF91CF910895B2
:1005DC00CF93DF93EC010E9479038823E1F30E940F
:1005EC00CB02863A21F482E00E943702F4CF863C9B
:1005FC0091F78FE697E10197F1F700C0000086EDC7
:10060C000E9486010E94260381E08883DF91CF91AE
:02061C0008953F
:10061E00CF93DF93EC010BC00E94790381110E94EE
:10062E00CB028BE291E00197F1F700C000000E942F
:0E063E007303813089F31882DF91CF91089504
:10064C0083E00E94070185B1816085B98BE291E05E
:0A065C000197F1F700C000000895B7
:100666009BB121E030E002C0220F331F8A95E2F7EA
:08067600209529232BB90895FA
:10067E0084B1856084B984B18D7F84B985B18E7F54
:08068E0085B986E085B90895E5
:100696009BB121E030E002C0220F331F8A95E2F7BA
:0606A600292B2BB9089579
:1006AC009AB121E030E002C0220F331F8A95E2F7A5
:0606BC00292B2AB9089564
:1006C200EC010E9497030E949603CE010E949803B8
:0606D200CE010E9494031A
:0E06D8008AB18F7E8AB98BB180618BB908958B
:0C06E60099B1892F807194FD81E0089586
:0C06F200199902C081E0089580E008958D
:0C06FE0084B1886284B981E58CBD089548
:0C070A008EBD0DB407FEFDCF8EB5089526
:0807160080620E949C0208951C
:06071E000E949C020895F8
:040724000C94000031
:040728000E946000CB
:02072C0008952E
:02072E0008952C
:0207300008952A
:05073200E7E7E7E7E73F
:05073700E7E7E7E7E73A
:00000001FF
