:100000000C943A000C94E2030C94E2030C94E20387
:100010000C94E2030C94E2030C94E2030C94E203CC
:100020000C94E2030C94E2030C94E2030C94E203BC
:100030000C94E2030C94E2030C94E2030C94E203AC
:100040000C94E2030C94E2030C94E2030C94E2039C
:100050000C94E2030C94E2030C94E2030C94E2038C
:100060000C94E2030C94E2030100010380010301FC
:100070000D0007D211241FBECFEFD8E0DEBFCDBFE9
:10008000E8E6F0E040E017C0B591A59135912591E3
:10009000059107FD0CC095918591EF01F92FE82F8F
:1000A00005900D92A217B307D9F7FE0104C01D9267
:1000B000A217B307E1F7E437F40731F70E946202B1
:0800C0000C94A803F894FFCF93
:1000C8000F931F93CF93DF930F92CDB7DEB70E94A4
:1000D800860385B1846085B985B18E7F85B92FEF98
:1000E80080E792E0215080409040E1F700C0000096
:1000F80083E7898341E050E0BE016F5F7F4F80E571
:100108000E94DB0389E3898341E050E0BE016F5F11
:100118007F4F80E00E94DB038FE3898341E050E05A
:10012800BE016F5F7F4F81E00E94DB038AE0898315
:1001380041E050E0BE016F5F7F4F84E00E94DB0327
:10014800198241E050E0BE016F5F7F4F82E00E945C
:10015800DB0316E0198341E050E0BE016F5F7F4F7B
:1001680085E00E94DB03198341E050E0BE016F5F28
:100178007F4F86E00E94DB0300E7098341E050E0FF
:10018800BE016F5F7F4F87E00E94DB0311E0198398
:1001980041E050E0BE016F5F7F4F81E10E94DB03C9
:1001A80083E0898341E050E0BE016F5F7F4F0E948A
:1001B800DB03098340E050E060E070E082EE0E94DB
:1001C800DB0340E050E060E070E081EE0E94DB037A
:1001D80045E050E068E071E08AE00E94DB0345E01A
:1001E80050E063E071E080E10E94DB03198341E0A5
:1001F80050E0BE016F5F7F4F82E00E94DB030F90EB
:0A020800DF91CF911F910F9108952F
:100212001F93CF93DF9300D0CDB7DEB7182F41E005
:1002220050E0BE016E5F7F4F80E00E94DF0313301B
:1002320071F128F4113059F01230E9F062C0153032
:1002420009F447C0D0F1163009F447C05AC08A8178
:1002520081FD57C08260898341E050E0BE016F5F3B
:100262007F4F80E00E94DB038FE99FE00197F1F767
:1002720000C0000046C08A818D7F898341E050E042
:10028200BE016F5F7F4F80E00E94DB033AC08A812C
:100292008160898341E050E0BE016F5F7F4F80E063
:1002A2000E94DB0380E7898341E050E0BE016F5F7B
:1002B2007F4F87E00E94DB0324C08A818E7F89837F
:1002C20041E050E0BE016F5F7F4F80E00E94DB03A0
:1002D20018C085B18E7F85B914C08A818E7F8983CB
:1002E20041E050E0BE016F5F7F4F80E00E94DB0380
:1002F20085B1816085B98BE291E00197F1F700C089
:0E03020000000F900F90DF91CF911F91089592
:10031000CF92DF92FF920F931F93CF93DF936C01E5
:1003200000E01DE7D0E00E94C303C82F813021F414
:1003300084E00E94920303C084E00E947A030E943A
:10034000C9038823B9F10E942703F82E0E944A03AB
:10035000813091F58FEFF8121AC0EFE6F7E131978F
:10036000F1F700C000000E94FC010E946D0383E0D1
:100370000E947A038FE19EE40197F1F700C000002C
:1003800083E00E94920300E01DE7D0E015C0809159
:100390000201F81211C0C1110FC0EFE6F7E1319769
:1003A000F1F700C000008FEF0E94FC010E946D0376
:1003B000D1E002C0015011090115110509F4D1E085
:1003C000D13059F4C11109C0F601108260E071E02A
:1003D00082E091E00E945C0307C08BE291E001970C
:1003E000F1F700C000009FCFDF91CF911F910F91D7
:0803F000FF90DF90CF9008950B
:1003F8000F931F93CF93DF930F92CDB7DEB7182FCC
:1004080085B18E7F85B940E050E060E070E082EE13
:100418000E94DB0340E050E060E070E081EE0E9463
:10042800DB0380E3898341E050E0BE016F5F7F4FCB
:1004380087E00E94DB0385B18B7F85B980EA0E9443
:10044800D503812F0E94D50385B1846085B984E0E6
:100458000E94090185B1816085B985E38A95F1F724
:10046800000085B18E7F85B910E000E014C041E03E
:1004780050E0BE016F5F7F4F87E00E94DF038981F4
:1004880085FD05C084FF06C011E000E004C011E04E
:1004980001E001C000E0112351F380E3898341E0CA
:1004A80050E0BE016F5F7F4F87E00E94DB03802F23
:0C04B8000F90DF91CF911F910F910895DC
:1004C400CF93DF930F92CDB7DEB71982F8940E94D1
:1004D400CF030E94BC0382E00E949D0383E00E943C
:1004E4009D0384E00E949D030E9464001092020117
:1004F400109201011092000160E071E082E091E04D
:100504000E945C0381E00E9409010E946D038981BD
:10051400811108C083E00E947A03CE0101960E94F3
:10052400FE02F5CF83E00E949203CE0101960E9461
:040534008801EDCF7E
:100538004BB121E030E0B90102C0660F771F8A9500
:10054800E2F7CB01462B4BB97FEF24E33CE0715037
:1005580020403040E1F700C000002BB1982F909563
:1005680029232BB94FEF64E37CE041506040704091
:10057800E1F700C000002BB1822B8BB98FEF24E389
:100588003CE0815020403040E1F700C000008BB1D2
:0605980098239BB90895B1
:10059E00BF92CF92DF92EF92FF920F931F93CF9362
:1005AE00DF936B017A0195B19B7F95B90E94D503BC
:1005BE00B82EC0E0D0E00AC086010C0F1D1FF80156
:1005CE0080810E94D503F80180832196CE15DF0528
:1005DE0098F385B1846085B98B2DDF91CF911F91F2
:0E05EE000F91FF90EF90DF90CF90BF90089597
:1005FC00CF93DF93EC010E94C9038823E1F30E949F
:10060C0027038E3F21F482E00E949C02F4CF90914C
:10061C0002018913F0CF8FE697E10197F1F700C043
:10062C0000008FEF0E94FC010E946D0381E0888323
:10063C0060E071E082E091E00E945C03DF91CF9179
:02064C0008950F
:10064E00CF93DF9300D0CDB7DEB785B18E7F85B95E
:10065E0041E050E0BE016E5F7F4F81E60E94CF0207
:10066E0080E4898341E050E0BE016F5F7F4F87E0F9
:10067E000E94DB0385B1816085B98A810F900F904E
:06068E00DF91CF910895F9
:10069400CF93DF930F92CDB7DEB741E050E0BE01B8
:1006A4006F5F7F4F89E00E94DF0389810F90DF91A4
:0406B400CF91089545
:1006B800CF93DF93EC01FB018081918101969183B7
:1006C8008083BC0180E80E94B3038883DF91CF91C7
:0206D800089583
:1006DA0083E00E94090185B1816085B98BE291E0CE
:0A06EA000197F1F700C00000089529
:1006F4009BB121E030E002C0220F331F8A95E2F75C
:08070400209529232BB908956B
:10070C0084B1856084B984B18D7F84B985B18E7FC5
:08071C0085B986E085B9089556
:100724009BB121E030E002C0220F331F8A95E2F72B
:06073400292B2BB90895EA
:10073A009AB121E030E002C0220F331F8A95E2F716
:06074A00292B2AB90895D5
:10075000EC010E94E7030E94E603CE010E94E80339
:06076000CE010E94E4033B
:10076600CB01F999FECF92BD81BDF89A992780B544
:020776000895E4
:0E0778008AB18F7B8AB98BB180648BB90895EA
:0C07860099B1892F807496FD81E00895E0
:0C079200199902C081E0089580E00895EC
:0C079E0084B1886284B981E58CBD0895A7
:0C07AA008EBD0DB407FEFDCF8EB5089586
:0807B60080620E94CF02089549
:0607BE000E94CF02089525
:0407C4000C94000091
:0407C8000E94620029
:0207CC0008958E
:0207CE0008958C
:0207D00008958A
:0507D200E7E7E7E7E79F
:0507D700E7E7E7E7E79A
:00000001FF
